:100000000C943B000C9458000C9458000C9458002D
:100010000C9458000C9458000C9458000C94580000
:100020000C9458000C9458000C9458000C945800F0
:100030000C9458000C9458000C9458000C945800E0
:100040000C9458000C9458000C9489000C9458009F
:100050000C9458000C9458000C9458000C945800C0
:100060000C9458000C945800FB0002010901130184
:100070001D012701310111241FBECFEFD8E0DEBFE3
:10008000CDBF11E0A0E0B1E0EAECF4E002C00590E1
:100090000D92A031B107D9F721E0A0E1B1E001C094
:1000A0001D92A831B207E1F70E9498010C946302F7
:1000B0000C9400009091C00095FFFCCF8093C60087
:1000C0000895CF93DF93EC0103C021960E945A005C
:1000D00088818111FACFDF91CF910895CF93DF937B
:1000E00000D000D000D0CDB7DEB74AE050E0BE016E
:1000F0006F5F7F4F0E942302CE0101960E94610034
:1001000026960FB6F894DEBF0FBECDBFDF91CF911C
:1001100008951F920F920FB60F9211242F933F93C1
:100120008F939F938091C6008093140181E0809308
:100130001301809113018823E9F11092130180913A
:100140001401803338F1809114018A3318F520911D
:10015000110130911201C901880F991F220F331F1D
:10016000220F331F220F331F820F931F2091140180
:10017000820F911DC09790931201809311018F3FC0
:100180009105C1F0B8F08FEF90E090931201809349
:10019000110110C0809114018A3021F08091140166
:1001A0008D3041F480911101809310011092120161
:1001B000109211019F918F913F912F910F900FBE3F
:1001C0000F901F901895E82F84FF52C084B18C6265
:1001D00084B984B18F7E84B98CB580618CBDE770A1
:1001E0008E2F90E08730910508F04BC0FC01EC5C4D
:1001F000FF4F0C941D028CB58C7F8CBD8DB581603A
:100200008DBD3FC08CB58C7F8CBD8DB58E7F8DBD77
:1002100038C08CB58D7F8CBD8CB581608CBD8DB5A3
:1002200081608DBD2EC08CB58D7F8CBD8CB58160FD
:100230008CBD8DB58E7F8DBD24C08CB58E7F8CBD61
:100240008CB582608CBD8DB581608DBD1AC08CB5BA
:100250008E7F8CBD8CB582608CBD8DB58E7F8DBD43
:1002600010C08CB583608CBD8DB58E7F8DBD09C0EF
:1002700084B1806184B984B1837D84B98CB58F7E6B
:100280008CBD8CB5462B242B282B20642CBD0895C7
:100290008EBD08950DB407FEFDCF8EB50895882359
:1002A00024F495B1926095B903C095B19D7F95B93D
:1002B00086FF04C095B1916095B903C095B19E7F4A
:1002C00095B985FF04C09BB190689BB903C09BB1F1
:1002D0009F779BB984FF04C09BB190649BB903C016
:1002E0009BB19F7B9BB983FF04C09BB190629BB97C
:1002F00003C09BB19F7D9BB982FF04C09BB19061FD
:100300009BB903C09BB19F7E9BB981FF04C09BB189
:1003100098609BB903C09BB1977F9BB980FF04C0D5
:100320008BB184608BB908958BB18B7F8BB90895A5
:10033000CF93DF9300D000D000D0CDB7DEB7F894D4
:1003400087B1806287B98AB18C6F8AB984B18360C2
:1003500084B988B1806288B985B18C7F85B98BB149
:1003600083708BB920E040E060E083E50E94E30009
:10037000ECE7F0E080818062808380E4808387E81E
:1003800080937A008AB182608AB98AB18E7F8AB9F5
:100390001092C00088E98093C10086E08093C2007B
:1003A00087E690E09093C5008093C400789483E63C
:1003B0000E94480188E70E9448010E944A018093F8
:1003C000150184E60E94480188E70E9448010E94C6
:1003D0004A01809316010E944F01809110010E94F2
:1003E0004801809115014AE050E0BE016F5F7F4FE8
:1003F00090E00E94230280E091E00E946100CE0123
:1004000001960E94610080E20E945A0086E091E01D
:100410000E9461008091160190E00E946E008CE0C5
:1004200091E00E9461002FEF84E39CE02150804026
:100430009040E1F700C00000BACFEE0FFF1F05901B
:10044000F491E02D09944532510520F4423010F02A
:100450000C942E02FB011082CB010895BB274A3079
:1004600031F4992322F4BDE2909581959F4F0C942D
:100470003A02BB27FB015527AA27880F991FAA1FFD
:10048000A41710F0A41B83955051B9F7A05DAA33AF
:1004900008F0A95DA193009779F7B111B19311927A
:1004A000CB010C945302DC01FC01672F719177237F
:1004B000E1F7329704C07C916D9370836291AE171F
:0A04C000BF07C8F30895F894FFCFBA
:1004CA00504F54313D00504F54323D000D0A000048
:00000001FF
