:100000000C9434000C9451000C9451000C94510049
:100010000C9451000C9451000C9451000C9451001C
:100020000C9451000C9451000C9451000C9451000C
:100030000C9451000C9451000C9451000C945100FC
:100040000C9451000C9451000C9482000C945100BB
:100050000C9451000C9451000C9451000C945100DC
:100060000C9451000C94510011241FBECFEFD8E026
:10007000DEBFCDBF11E0A0E0B1E0ECE7F6E002C0EA
:1000800005900D92A033B107D9F721E0A0E3B1E0CC
:1000900001C01D92A433B207E1F70E9497010C94AE
:1000A0003C030C9400009091C00095FFFCCF80931E
:1000B000C6000895CF93DF93EC0103C021960E9400
:1000C000530088818111FACFDF91CF910895CF93AA
:1000D000DF9300D000D000D0CDB7DEB74AE050E0CB
:1000E000BE016F5F7F4F0E94FC02CE0101960E940D
:1000F0005A0026960FB6F894DEBF0FBECDBFDF9133
:10010000CF9108951F920F920FB60F9211248F93E3
:100110008091C6008093310181E0809330018F91FE
:100120000F900FBE0F901F901895ECE7F0E09081B4
:10013000907F892B8083EAE7F0E080818064808370
:1001400080917A0086FDFCCF8091780090917900B3
:10015000089580FF04C095B1916095B903C095B131
:100160009E7F95B981FF04C095B1926095B903C097
:1001700095B19D7F95B982FF04C09BB194609BB9F6
:1001800003C09BB19B7F9BB983FF04C09BB1986068
:100190009BB903C09BB1977F9BB984FF04C09BB1FF
:1001A00090619BB903C09BB19F7E9BB985FF04C042
:1001B0009BB190629BB903C09BB19F7D9BB986FFA9
:1001C00004C09BB190649BB903C09BB19F7B9BB95A
:1001D000882324F48BB180688BB908958BB18F7715
:1001E0008BB9089598B19E7F98B90E94A90088B1F3
:1001F000826088B98FE79EE30197F1F700C00000A5
:1002000088B18D7F88B9089587B1836087B918B8A0
:1002100084B1836084B915B88AB18FEF8AB91BB8ED
:1002200088B18E7F88B980E00E94A9008FE59AEEA0
:100230000197F1F700C0000080E30E94F2008FE711
:100240009EE30197F1F700C0000080E30E94F200F6
:100250008FE891E00197F1F700C0000080E30E9471
:10026000F20088E30E94F20088E00E94F20081E040
:100270000E94F20086E00E94F20081E00E94F200FB
:100280008CE00E94F2000895F89480E480937C0052
:1002900087E880937A000E9404018AB182608AB95B
:1002A0008AB18E7F8AB91092C00088E98093C1001C
:1002B00086E08093C20087E690E09093C50080932B
:1002C000C4007894089598B1916098B90E94A900EB
:1002D00088B1826088B98FE79EE30197F1F700C08B
:1002E000000088B18D7F88B908950F931F93CF9335
:1002F000DF938C01C0E0D0E003C00E94630121962F
:10030000F801EC0FFD1F80818111F7CFDF91CF91B4
:100310001F910F910895613021F481580E94F200DD
:100320000895623019F481540E94F2000895CF9329
:10033000DF93CDB7DEB764970FB6F894DEBF0FBE7C
:10034000CDBF0E94440161E081E00E948B0188E4FE
:100350000E9463018FE60E9463018CE60E946301A4
:1003600081E60E94630162E081E00E948B0180E0EF
:1003700091E00E94750181E00E94F20061E081E05D
:100380000E948B0180E191E00E94750182E00E9451
:1003900095009C01A4EFB1E00E94ED022FEF33E045
:1003A00040E050E00E94CB0269017A01A901569514
:1003B0004795569547959A01ABE7B4E10E94ED0247
:1003C0008C011695079524E6209FC001219F900D72
:1003D0001124C81AD90A1C2D61E084E00E948B0107
:1003E0004AE0BE016F5F7F4F802F90E00E940703BD
:1003F000CE0101960E9475018EE20E9463011A30BF
:1004000018F480E30E9463014AE0BE016F5F7F4FF2
:100410008C2D90E00E940703CE0101960E94750189
:1004200086E50E94630162E081E00E948B0184E125
:1004300091E00E94750162E084E00E948B0183E0FC
:100440000E9495008C014AE0BE01615F7F4F0E94CF
:100450000703CE010F960E947501809131018B3206
:1004600069F48091320190913301019690933301A8
:100470008093320180E38093310110C0809131017B
:100480008D3261F480913201909133010197909304
:1004900033018093320180E38093310162E089E08F
:1004A0000E948B0188E191E00E94750162E08CE07E
:1004B0000E948B014AE0BE01675F7F4F809132014D
:1004C000909133010E940703CE0109960E947501A5
:1004D00082E00E9495009C01A4EFB1E00E94ED0231
:1004E0002FEF33E040E050E00E94CB0269017A0137
:1004F000A90156954795569547959A01ABE7B4E102
:100500000E94ED02FC01F695E79524E62E9FC001BE
:100510002F9F900D1124C81AD90A4AE0BE016F5FBF
:100520007F4F8E2F90E00E9407038CE191E00E94A4
:100530005A00CE0101960E945A008EE20E9453009A
:1005400089E08C1518F080E30E9453004AE0BE0158
:100550006F5F7F4F8C2D90E00E940703CE010196C4
:100560000E945A0086E50E94530080E291E00E94BA
:100570005A00C8010E94670086E291E00E945A007A
:1005800080913201909133010E9467008CE291E0EA
:100590000E945A00F0CEA1E21A2EAA1BBB1BFD013D
:1005A0000DC0AA1FBB1FEE1FFF1FA217B307E40752
:1005B000F50720F0A21BB30BE40BF50B661F771FAA
:1005C000881F991F1A9469F760957095809590958A
:1005D0009B01AC01BD01CF010895A29FB001B39F63
:1005E000C001A39F700D811D1124911DB29F700D3C
:1005F000811D1124911D08954532510520F442308A
:1006000010F00C940703FB011082CB010895BB2767
:100610004A3031F4992322F4BDE2909581959F4FA1
:100620000C941303BB27FB015527AA27880F991F9A
:10063000AA1FA41710F0A41B83955051B9F7A05D11
:10064000AA3308F0A95DA193009779F7B111B1938E
:100650001192CB010C942C03DC01FC01672F7191EA
:100660007723E1F7329704C07C916D937083629198
:0C067000AE17BF07C8F30895F894FFCF41
:10067C004D756E646F206469676974616C2032001B
:10068C0053313A0053323A0053333A0053313D0060
:10069C00202053323D00202053333D000D0A000032
:00000001FF
