S01700004763634170706C69636174696F6E322E737265635A
S11300000C9434000C9451000C9451000C949A00FC
S11300100C9451000C9451000C9451000C94510018
S11300200C9451000C9451000C9451000C94510008
S11300300C9451000C9451000C9451000C945100F8
S11300400C94A4000C9451000C9451000C94510095
S11300500C9451000C9451000C9451000C945100D8
S11300600C9451000C94510011241FBECFEFD8E022
S1130070DEBFCDBF11E0A0E0B1E0ECE8F3E002C0E8
S113008005900D92A231B107D9F721E0A2E1B1E0C8
S113009001C01D92A132B207E1F70E9434010C9411
S11300A0C4010C940000F8948FEF8AB91BB887B987
S11300B018B814B885B914BC85E085BD84E686BD3E
S11300C081E080936E00789408958091150120E179
S11300D0829FC0011124209114012F70822B089556
S11300E080931601811104C010921401109215011D
S11300F0089585E080931A01089580911A0190E093
S1130100089590911701992319F0913051F00895B1
S11301101BB898B1916098B998B19D7F98B98BB983
S113012008951BB888B18E7F88B988B1826088B978
S11301306BB908951F920F920FB60F9211240F906E
S11301400FBE0F901F9018951F920F920FB60F922B
S113015011248F939F9384E686BD809119018F5F4C
S113016080931901882359F0109219018091170185
S11301708F5F80931701823010F0109217018091E5
S113018018018F5F80931801843660F01092180173
S113019080911A01815080931A018F3F19F485E0F0
S11301A080931A0183B180FD26C09091160191308D
S11301B011F590911301953020F49F5F90931301F2
S11301C01FC0909101019923D9F0109201019091DF
S11301D01501911104C091E09093150111C0909103
S11301E01501990F9093150190911501993040F0E4
S11301F01092150105C01092130191E09093010132
S113020081FD26C080911601813011F58091120183
S1130210853020F48F5F809312011FC0809100010C
S11302208823D9F01092000180911401811104C037
S113023081E08093140111C080911401880F809390
S1130240140180911401893040F01092140105C00A
S11302501092120181E0809300019F918F910F9081
S11302600FBE0F901F9018950E945300809120019B
S11302708230A1F128F4882351F08130D1F0F6CFF7
S1130280833009F452C0843009F465C0EFCF80E0B4
S11302900E94700083B180931C0190911B0192FF16
S11302A070C082FD6EC081E0809320010E947900BD
S11302B0DDCF0E947D0080931E01E82FF0E0EE5F09
S11302C0FE4F60911D0180810E94810080911E017A
S11302D08111CCCF82E080932001C8CF81E00E94BD
S11302E0700081E08093680083E080936B000E943B
S11302F0650080931D01E0911E01F0E0EE5FFE4F6A
S1130300682F80810E94810080911D0188231CF444
S113031083E0809320010E94650080931D0183FF88
S1130320A5CF84E080932001A1CF80E00E947000DB
S113033060EF80E30E94810083B180931C0190915F
S11303401B0192FF93CF82FD91CF81E08093200126
S11303500E9479008BCF80E00E9470006FE08DE6F0
S11303600E94810083B180931C0190911B0192FF34
S11303707DCF82FD7BCF81E0809320010E947900B4
S10F038075CF80931B0172CFF894FFCF5F
S113038C01017E306D79335B5F707F73771F4E3D57
S105039C4F47C5
S9030000FC
